:1000000012C024C023C022C021C020C01FC01EC0F7
:100010001DC01CC01BC01AC019C018C017C016C014
:1000200015C014C013C011241FBECFE5D4E0DEBF3D
:10003000CDBF10E0A0E6B0E0ECE8F4E002C005902F
:100040000D92A436B107D9F702D01EC2D9CF8FEFD7
:1000500087BB81BB18BA85E582BB81E084BB85E89C
:1000600086B985E087B9369A3699FECFC4B1D5B145
:10007000CE01969587959695879588BB989BF3CFEB
:1000800018BA2FE986E891E0215080409040E1F7CE
:1000900000C0000090D1BC01990F880B990B54D07F
:1000A00020E030E040E058E3B3D06B017C0184E015
:1000B000D695C7958A95E1F7BE0180E090E042D0E1
:1000C0009B01AC01C701B601A3D00BD068BB2FE3E5
:1000D0008DE093E0215080409040E1F700C00000A7
:1000E000C2CF04D06894B1118DC0089570D088F04B
:1000F0009F5790F0B92F9927B751A0F0D1F0660F14
:10010000771F881F991F1AF0BA95C9F712C0B1302E
:1001100081F077D0B1E0089574C0672F782F8827D9
:10012000B85F39F0B93FCCF3869577956795B3956D
:10013000D9F73EF490958095709561957F4F8F4FDC
:100140009F4F0895E89409C097FB3EF490958095E1
:10015000709561957F4F8F4F9F4F9923A9F0F92F8D
:1001600096E9BB279395F695879577956795B7950B
:10017000F111F8CFFAF4BB0F11F460FF1BC06F5FF1
:100180007F4F8F4F9F4F16C0882311F096E911C003
:10019000772321F09EE8872F762F05C0662371F024
:1001A00096E8862F70E060E02AF09A95660F771F38
:1001B000881FDAF7880F9695879597F9089557FD68
:1001C0009058440F551F59F05F3F71F04795880FC5
:1001D00097FB991F61F09F3F79F08795089512165C
:1001E00013061406551FF2CF4695F1DF08C0161608
:1001F00017061806991FF1CF8695710561050894B9
:100200000895E894BB2766277727CB0197F90895CF
:100210000BD078C069D028F06ED018F0952309F083
:100220005AC05FC01124EECFCADFA0F3959FD1F36F
:10023000950F50E0551F629FF001729FBB27F00D94
:10024000B11D639FAA27F00DB11DAA1F649F6627E9
:10025000B00DA11D661F829F2227B00DA11D621F38
:10026000739FB00DA11D621F839FA00D611D221FF2
:10027000749F3327A00D611D231F849F600D211DD6
:10028000822F762F6A2F11249F5750408AF0E1F079
:1002900088234AF0EE0FFF1FBB1F661F771F881FC2
:1002A00091505040A9F79E3F510570F014C0AACF5D
:1002B0005F3FECF3983EDCF3869577956795B795AD
:1002C000F795E7959F5FC1F7FE2B880F911D9695D7
:1002D000879597F9089597F99F6780E870E060E047
:1002E00008959FEF80EC089500240A9416161706CF
:1002F00018060906089500240A9412161306140617
:1003000005060895092E0394000C11F4882352F079
:10031000BB0F40F4BF2B11F460FF04C06F5F7F4F31
:100320008F4F9F4F08958F929F92AF92BF92CF921F
:10033000DF92EF92FF92CF93DF93EC016881798196
:100340008A819B81611571058105910521F464E223
:1003500079ED8BE597E02DE133EF41E050E03AD0C5
:1003600049015A019B01AC01A7EAB1E44FD06B01EE
:100370007C01ACEEB4EFA501940154D0DC01CB01BB
:100380008C0D9D1DAE1DBF1DB7FF03C00197A109B8
:10039000B04888839983AA83BB839F77DF91CF91ED
:1003A000FF90EF90DF90CF90BF90AF909F908F9095
:1003B0000895B9DF089580E690E0B5DF0895A0E0E4
:1003C000B0E08093600090936100A0936200B093CE
:1003D00063000895052E97FB16F400940FD057FD87
:1003E00005D024D007FC02D046F408C050954095B3
:1003F000309521953F4F4F4F5F4F089590958095D1
:10040000709561957F4F8F4F9F4F089531D0A59F75
:10041000900DB49F900DA49F800D911D11240895FF
:10042000B7FFF4CFF3DF821B930B0895A1E21A2EDE
:10043000AA1BBB1BFD010DC0AA1FBB1FEE1FFF1F88
:10044000A217B307E407F50720F0A21BB30BE40BD8
:10045000F50B661F771F881F991F1A9469F760951F
:100460007095809590959B01AC01BD01CF010895D9
:10047000A29FB001B39FC001A39F01D0B29F700D96
:0C048000811D1124911D0895F894FFCFF8
:04048C00010000006B
:00000001FF
